{
  "transactions": [
    {
      "hash": "0xa34cb4a1e36d1bb3ed04260e508ae0b48f602473efa559727bc0ad50e7ac5c2e",
      "transactionType": "CALL",
      "contractName": "Vault",
      "contractAddress": "0xBA12222222228d8Ba445958a75a0704d566BF2C8",
      "function": "exitPool(bytes32,address,address,(address[],uint256[],bytes,bool))",
      "arguments": [
        "0x28d56210d3682f89dd3af3542f7a05259358bb22000200000000000000000738",
        "0xEbCb9e6Bf7DE2404831c733f98e0aBc5D7dcb43A",
        "0xEbCb9e6Bf7DE2404831c733f98e0aBc5D7dcb43A",
        "([0x07865c6E87B9F70255377e024ace6630C1Eaa37F, 0xB4FBF271143F4FBf7B91A5ded31805e42b2208d6], [0, 0], 0x00000000000000000000000000000000000000000000000000000000000000020000000000000000000000000000000000000000000000000000000000000000, false)"
      ],
      "rpc": "https://eth-goerli.g.alchemy.com/v2/v72J0zbm7L22BjOUM_gn-dfdX_hxEsw_",
      "transaction": {
        "type": "0x02",
        "from": "0xebcb9e6bf7de2404831c733f98e0abc5d7dcb43a",
        "to": "0xba12222222228d8ba445958a75a0704d566bf2c8",
        "gas": "0x421f0",
        "value": "0x0",
        "data": "0x8bdb391328d56210d3682f89dd3af3542f7a05259358bb22000200000000000000000738000000000000000000000000ebcb9e6bf7de2404831c733f98e0abc5d7dcb43a000000000000000000000000ebcb9e6bf7de2404831c733f98e0abc5d7dcb43a0000000000000000000000000000000000000000000000000000000000000080000000000000000000000000000000000000000000000000000000000000008000000000000000000000000000000000000000000000000000000000000000e000000000000000000000000000000000000000000000000000000000000001400000000000000000000000000000000000000000000000000000000000000000000000000000000000000000000000000000000000000000000000000000000200000000000000000000000007865c6e87b9f70255377e024ace6630c1eaa37f000000000000000000000000b4fbf271143f4fbf7b91a5ded31805e42b2208d6000000000000000000000000000000000000000000000000000000000000000200000000000000000000000000000000000000000000000000000000000000000000000000000000000000000000000000000000000000000000000000000000000000000000000000000000000000000000000000000000000000000000004000000000000000000000000000000000000000000000000000000000000000020000000000000000000000000000000000000000000000000000000000000000",
        "nonce": "0x75",
        "accessList": []
      },
      "additionalContracts": []
    }
  ],
  "receipts": [
    {
      "transactionHash": "0xa34cb4a1e36d1bb3ed04260e508ae0b48f602473efa559727bc0ad50e7ac5c2e",
      "transactionIndex": "0xc",
      "blockHash": "0xd399dbc2fec2d5f65bb37a3d2a50261bac7f53c016db85dc13a846e031f6f12e",
      "blockNumber": "0x866907",
      "from": "0xEbCb9e6Bf7DE2404831c733f98e0aBc5D7dcb43A",
      "to": "0xBA12222222228d8Ba445958a75a0704d566BF2C8",
      "cumulativeGasUsed": "0xbab26",
      "gasUsed": "0x2fdef",
      "contractAddress": null,
      "logs": [
        {
          "address": "0x28d56210D3682F89dD3AF3542F7a05259358bb22",
          "topics": [
            "0x4ad2915cd8cef57cf8d82983f8bf82308eb03cc31daaa0945f04baf7f2b26115",
            "0x0000000000000000000000000000000000000000000000000000000000000000",
            "0x00000000000000000000000007865c6e87b9f70255377e024ace6630c1eaa37f",
            "0x000000000000000000000000b4fbf271143f4fbf7b91a5ded31805e42b2208d6"
          ],
          "data": "0x0000000000000000000000000000000000000000000000000000000005a643680000000000000000000000000000000000000000000000000001d7fe4db83af30000000000000000000000000000000000000000000000000000000000000000000000000000000000000000ebcb9e6bf7de2404831c733f98e0abc5d7dcb43a",
          "blockHash": "0xd399dbc2fec2d5f65bb37a3d2a50261bac7f53c016db85dc13a846e031f6f12e",
          "blockNumber": "0x866907",
          "transactionHash": "0xa34cb4a1e36d1bb3ed04260e508ae0b48f602473efa559727bc0ad50e7ac5c2e",
          "transactionIndex": "0xc",
          "logIndex": "0x4",
          "removed": false
        },
        {
          "address": "0x07865c6E87B9F70255377e024ace6630C1Eaa37F",
          "topics": [
            "0xddf252ad1be2c89b69c2b068fc378daa952ba7f163c4a11628f55a4df523b3ef",
            "0x000000000000000000000000ba12222222228d8ba445958a75a0704d566bf2c8",
            "0x000000000000000000000000ebcb9e6bf7de2404831c733f98e0abc5d7dcb43a"
          ],
          "data": "0x0000000000000000000000000000000000000000000000000000000005a64368",
          "blockHash": "0xd399dbc2fec2d5f65bb37a3d2a50261bac7f53c016db85dc13a846e031f6f12e",
          "blockNumber": "0x866907",
          "transactionHash": "0xa34cb4a1e36d1bb3ed04260e508ae0b48f602473efa559727bc0ad50e7ac5c2e",
          "transactionIndex": "0xc",
          "logIndex": "0x5",
          "removed": false
        },
        {
          "address": "0xB4FBF271143F4FBf7B91A5ded31805e42b2208d6",
          "topics": [
            "0xddf252ad1be2c89b69c2b068fc378daa952ba7f163c4a11628f55a4df523b3ef",
            "0x000000000000000000000000ba12222222228d8ba445958a75a0704d566bf2c8",
            "0x000000000000000000000000ebcb9e6bf7de2404831c733f98e0abc5d7dcb43a"
          ],
          "data": "0x0000000000000000000000000000000000000000000000000001d7fe4db83af3",
          "blockHash": "0xd399dbc2fec2d5f65bb37a3d2a50261bac7f53c016db85dc13a846e031f6f12e",
          "blockNumber": "0x866907",
          "transactionHash": "0xa34cb4a1e36d1bb3ed04260e508ae0b48f602473efa559727bc0ad50e7ac5c2e",
          "transactionIndex": "0xc",
          "logIndex": "0x6",
          "removed": false
        },
        {
          "address": "0xBA12222222228d8Ba445958a75a0704d566BF2C8",
          "topics": [
            "0xe5ce249087ce04f05a957192435400fd97868dba0e6a4b4c049abf8af80dae78",
            "0x28d56210d3682f89dd3af3542f7a05259358bb22000200000000000000000738",
            "0x000000000000000000000000ebcb9e6bf7de2404831c733f98e0abc5d7dcb43a"
          ],
          "data": "0x000000000000000000000000000000000000000000000000000000000000006000000000000000000000000000000000000000000000000000000000000000c00000000000000000000000000000000000000000000000000000000000000120000000000000000000000000000000000000000000000000000000000000000200000000000000000000000007865c6e87b9f70255377e024ace6630c1eaa37f000000000000000000000000b4fbf271143f4fbf7b91a5ded31805e42b2208d60000000000000000000000000000000000000000000000000000000000000002fffffffffffffffffffffffffffffffffffffffffffffffffffffffffa59bc98fffffffffffffffffffffffffffffffffffffffffffffffffffe2801b247c50d000000000000000000000000000000000000000000000000000000000000000200000000000000000000000000000000000000000000000000000000000000000000000000000000000000000000000000000000000000000000000000000000",
          "blockHash": "0xd399dbc2fec2d5f65bb37a3d2a50261bac7f53c016db85dc13a846e031f6f12e",
          "blockNumber": "0x866907",
          "transactionHash": "0xa34cb4a1e36d1bb3ed04260e508ae0b48f602473efa559727bc0ad50e7ac5c2e",
          "transactionIndex": "0xc",
          "logIndex": "0x7",
          "removed": false
        }
      ],
      "status": "0x1",
      "logsBloom": "0x00000000000000000080000000000000000000000800000000000000200000000001000000000000000000000400000000800000020000020000020000000000001000000400000000000008000000000000000000000000000000000000000000000000820400000000108000000808000000000000000000000010000000000000000000000000000000000000000000000000000000002008000000000000000000000000001000000000000000000000000000000000000100008000000000004002000000000100000000000000002000000000000000000000001020000000000002000000000000008020000000100000000002000002000400000000",
      "type": "0x2",
      "effectiveGasPrice": "0x1836356ca"
    }
  ],
  "libraries": [],
  "pending": [],
  "path": "/Users/pbj/Development/twamm/public/clean/twamm/broadcast/CancelOrder.s.sol/5/run-latest.json",
  "returns": {},
  "timestamp": 1681165856,
  "chain": 5,
  "multi": false,
  "commit": "feae647"
}