{
  "transactions": [
    {
      "hash": "0xfe696d74409897f1a00a75052e1ff2bd931b73a17ac1cac9b2ef043c42575c40",
      "transactionType": "CALL",
      "contractName": "FiatTokenProxy",
      "contractAddress": "0x07865c6E87B9F70255377e024ace6630C1Eaa37F",
      "function": "approve(address,uint256):(bool)",
      "arguments": [
        "0xBA12222222228d8Ba445958a75a0704d566BF2C8",
        "10000000"
      ],
      "rpc": "https://eth-goerli.g.alchemy.com/v2/v72J0zbm7L22BjOUM_gn-dfdX_hxEsw_",
      "transaction": {
        "type": "0x02",
        "from": "0xebcb9e6bf7de2404831c733f98e0abc5d7dcb43a",
        "to": "0x07865c6e87b9f70255377e024ace6630c1eaa37f",
        "gas": "0x155de",
        "value": "0x0",
        "data": "0x095ea7b3000000000000000000000000ba12222222228d8ba445958a75a0704d566bf2c80000000000000000000000000000000000000000000000000000000000989680",
        "nonce": "0x73",
        "accessList": []
      },
      "additionalContracts": []
    },
    {
      "hash": "0x76e57aaf8fc449db90a2511b1790cb125a3d2d179c5644f5d896818480f2ec5d",
      "transactionType": "CALL",
      "contractName": "Vault",
      "contractAddress": "0xBA12222222228d8Ba445958a75a0704d566BF2C8",
      "function": "swap((bytes32,uint8,address,address,uint256,bytes),(address,bool,address,bool),uint256,uint256):(uint256)",
      "arguments": [
        "(0x28d56210d3682f89dd3af3542f7a05259358bb22000200000000000000000738, 0, 0x07865c6E87B9F70255377e024ace6630C1Eaa37F, 0xB4FBF271143F4FBf7B91A5ded31805e42b2208d6, 10000000, 0x00000000000000000000000000000000000000000000000000000000000000000000000000000000000000000000000000000000000000000000000000000000)",
        "(0xEbCb9e6Bf7DE2404831c733f98e0aBc5D7dcb43A, false, 0xEbCb9e6Bf7DE2404831c733f98e0aBc5D7dcb43A, false)",
        "0",
        "1681166572"
      ],
      "rpc": "https://eth-goerli.g.alchemy.com/v2/v72J0zbm7L22BjOUM_gn-dfdX_hxEsw_",
      "transaction": {
        "type": "0x02",
        "from": "0xebcb9e6bf7de2404831c733f98e0abc5d7dcb43a",
        "to": "0xba12222222228d8ba445958a75a0704d566bf2c8",
        "gas": "0x4c6cc",
        "value": "0x0",
        "data": "0x52bbbe2900000000000000000000000000000000000000000000000000000000000000e0000000000000000000000000ebcb9e6bf7de2404831c733f98e0abc5d7dcb43a0000000000000000000000000000000000000000000000000000000000000000000000000000000000000000ebcb9e6bf7de2404831c733f98e0abc5d7dcb43a0000000000000000000000000000000000000000000000000000000000000000000000000000000000000000000000000000000000000000000000000000000000000000000000000000000000000000000000000000000000000000643490ec28d56210d3682f89dd3af3542f7a05259358bb22000200000000000000000738000000000000000000000000000000000000000000000000000000000000000000000000000000000000000007865c6e87b9f70255377e024ace6630c1eaa37f000000000000000000000000b4fbf271143f4fbf7b91a5ded31805e42b2208d6000000000000000000000000000000000000000000000000000000000098968000000000000000000000000000000000000000000000000000000000000000c0000000000000000000000000000000000000000000000000000000000000004000000000000000000000000000000000000000000000000000000000000000000000000000000000000000000000000000000000000000000000000000000000",
        "nonce": "0x74",
        "accessList": []
      },
      "additionalContracts": []
    }
  ],
  "receipts": [
    {
      "transactionHash": "0xfe696d74409897f1a00a75052e1ff2bd931b73a17ac1cac9b2ef043c42575c40",
      "transactionIndex": "0x9",
      "blockHash": "0x67a206bf6f4545800e46e26c8198f8980577cb6fea22da3fd408abfb54c92462",
      "blockNumber": "0x8668f5",
      "from": "0xEbCb9e6Bf7DE2404831c733f98e0aBc5D7dcb43A",
      "to": "0x07865c6E87B9F70255377e024ace6630C1Eaa37F",
      "cumulativeGasUsed": "0x7e541",
      "gasUsed": "0xe9c2",
      "contractAddress": null,
      "logs": [
        {
          "address": "0x07865c6E87B9F70255377e024ace6630C1Eaa37F",
          "topics": [
            "0x8c5be1e5ebec7d5bd14f71427d1e84f3dd0314c0f7b2291e5b200ac8c7c3b925",
            "0x000000000000000000000000ebcb9e6bf7de2404831c733f98e0abc5d7dcb43a",
            "0x000000000000000000000000ba12222222228d8ba445958a75a0704d566bf2c8"
          ],
          "data": "0x0000000000000000000000000000000000000000000000000000000000989680",
          "blockHash": "0x67a206bf6f4545800e46e26c8198f8980577cb6fea22da3fd408abfb54c92462",
          "blockNumber": "0x8668f5",
          "transactionHash": "0xfe696d74409897f1a00a75052e1ff2bd931b73a17ac1cac9b2ef043c42575c40",
          "transactionIndex": "0x9",
          "logIndex": "0x4",
          "removed": false
        }
      ],
      "status": "0x1",
      "logsBloom": "0x00000000000000000000000000000000000000000000000000000000000000000000000000000000000000000000000000000000020000000000000000200000001000000000000000000000000000000000000000000000000000000000000000000000000000000000108000000000000000000000000000000010000000000000000000000000000000000000000000000000000000000000000000000000020000000000001000000000000000000000000000000000000000000000000000000000000000000000000000000000002000000000000000000000001000000010000000000000000000000000000000000000000002000000000000000000",
      "type": "0x2",
      "effectiveGasPrice": "0x1d5afbbe1"
    },
    {
      "transactionHash": "0x76e57aaf8fc449db90a2511b1790cb125a3d2d179c5644f5d896818480f2ec5d",
      "transactionIndex": "0x4",
      "blockHash": "0x483ee67d6401d49e0e52798828ad2567006cbe6dccdd2f963c0a127d73c3c408",
      "blockNumber": "0x8668f6",
      "from": "0xEbCb9e6Bf7DE2404831c733f98e0aBc5D7dcb43A",
      "to": "0xBA12222222228d8Ba445958a75a0704d566BF2C8",
      "cumulativeGasUsed": "0xb514e",
      "gasUsed": "0x3441a",
      "contractAddress": null,
      "logs": [
        {
          "address": "0x28d56210D3682F89dD3AF3542F7a05259358bb22",
          "topics": [
            "0x37e41badd72aca9bedfbfa5f3c99a2b3b408e7b966e604063a37af67cd081d10",
            "0x000000000000000000000000ebcb9e6bf7de2404831c733f98e0abc5d7dcb43a",
            "0x00000000000000000000000007865c6e87b9f70255377e024ace6630c1eaa37f"
          ],
          "data": "0x000000000000000000000000000000000000000000000000000000000098968000000000000000000000000000000000000000000000000000038455586a91d80000000000000000000000000000000000000000000000000000000000000000",
          "blockHash": "0x483ee67d6401d49e0e52798828ad2567006cbe6dccdd2f963c0a127d73c3c408",
          "blockNumber": "0x8668f6",
          "transactionHash": "0x76e57aaf8fc449db90a2511b1790cb125a3d2d179c5644f5d896818480f2ec5d",
          "transactionIndex": "0x4",
          "logIndex": "0x3",
          "removed": false
        },
        {
          "address": "0xBA12222222228d8Ba445958a75a0704d566BF2C8",
          "topics": [
            "0x2170c741c41531aec20e7c107c24eecfdd15e69c9bb0a8dd37b1840b9e0b207b",
            "0x28d56210d3682f89dd3af3542f7a05259358bb22000200000000000000000738",
            "0x00000000000000000000000007865c6e87b9f70255377e024ace6630c1eaa37f",
            "0x000000000000000000000000b4fbf271143f4fbf7b91a5ded31805e42b2208d6"
          ],
          "data": "0x000000000000000000000000000000000000000000000000000000000098968000000000000000000000000000000000000000000000000000038455586a91d8",
          "blockHash": "0x483ee67d6401d49e0e52798828ad2567006cbe6dccdd2f963c0a127d73c3c408",
          "blockNumber": "0x8668f6",
          "transactionHash": "0x76e57aaf8fc449db90a2511b1790cb125a3d2d179c5644f5d896818480f2ec5d",
          "transactionIndex": "0x4",
          "logIndex": "0x4",
          "removed": false
        },
        {
          "address": "0x07865c6E87B9F70255377e024ace6630C1Eaa37F",
          "topics": [
            "0xddf252ad1be2c89b69c2b068fc378daa952ba7f163c4a11628f55a4df523b3ef",
            "0x000000000000000000000000ebcb9e6bf7de2404831c733f98e0abc5d7dcb43a",
            "0x000000000000000000000000ba12222222228d8ba445958a75a0704d566bf2c8"
          ],
          "data": "0x0000000000000000000000000000000000000000000000000000000000989680",
          "blockHash": "0x483ee67d6401d49e0e52798828ad2567006cbe6dccdd2f963c0a127d73c3c408",
          "blockNumber": "0x8668f6",
          "transactionHash": "0x76e57aaf8fc449db90a2511b1790cb125a3d2d179c5644f5d896818480f2ec5d",
          "transactionIndex": "0x4",
          "logIndex": "0x5",
          "removed": false
        },
        {
          "address": "0xB4FBF271143F4FBf7B91A5ded31805e42b2208d6",
          "topics": [
            "0xddf252ad1be2c89b69c2b068fc378daa952ba7f163c4a11628f55a4df523b3ef",
            "0x000000000000000000000000ba12222222228d8ba445958a75a0704d566bf2c8",
            "0x000000000000000000000000ebcb9e6bf7de2404831c733f98e0abc5d7dcb43a"
          ],
          "data": "0x00000000000000000000000000000000000000000000000000038455586a91d8",
          "blockHash": "0x483ee67d6401d49e0e52798828ad2567006cbe6dccdd2f963c0a127d73c3c408",
          "blockNumber": "0x8668f6",
          "transactionHash": "0x76e57aaf8fc449db90a2511b1790cb125a3d2d179c5644f5d896818480f2ec5d",
          "transactionIndex": "0x4",
          "logIndex": "0x6",
          "removed": false
        }
      ],
      "status": "0x1",
      "logsBloom": "0x00000000000000000080000000004000000000000800000000000000200000000000000000000000000000000400000000000000020000020000020000000000001000000400000000000008000020000000000000000000000000000000000000000000800400001000108000000000000000400000000000000010000000000000000000000000000000000000000000000000000000002008000000000000000000000000001000000000000000000000000000000000000100008000000000004002000000000100200000000000002000000000000000000000001000000000000002000000000000008000000000000000000002000002000400000000",
      "type": "0x2",
      "effectiveGasPrice": "0x1d0caba20"
    }
  ],
  "libraries": [],
  "pending": [],
  "path": "/Users/pbj/Development/twamm/public/clean/twamm/broadcast/ShortTermTrade.s.sol/5/run-latest.json",
  "returns": {},
  "timestamp": 1681165614,
  "chain": 5,
  "multi": false,
  "commit": "feae647"
}